S010000074656D706C6174652E73726563B8
S3150800000000100020E1020008BB020008BD0200083B
S31508000010BF020008C1020008C30200080000000071
S31508000020000000000000000000000000C5020008F3
S31508000030C702000800000000C9020008CB02000839
S31508000040FD0200080103000805030008090300086B
S315080000500D0300081103000815030008190300081A
S315080000601D030008210300082503000829030008CA
S315080000702D0300083103000835030008390300087A
S315080000803D0300084103000845030008490300082A
S315080000904D030008510300085503000859030008DA
S315080000A05D0300086103000865030008690300088A
S315080000B06D0300087103000875030008790300083A
S315080000C07D030008810300088503000889030008EA
S315080000D08D0300089103000895030008990300089A
S315080000E09D030008A1030008A5030008A90300084A
S315080000F0AD030008B1030008B5030008B9030008FA
S31508000100BD030008C1030008C5030008C9030008A9
S31508000110CD030008D1030008D5030008D903000859
S31508000120DD030008E1030008E5030008E903000809
S3150800013080B54F48006850F001004D4908604D48A9
S3150800014000684D4908404B490860494800684B49D2
S315080001500840474908604648006830F4802044490A
S3150800016008604448006830F4FE00424908605FF4BD
S315080001701F004349086000F005F85FF00060414938
S31508000180086001BD80B500F001F801BD82B000200D
S315080001900190002000903648006850F480303449B9
S315080001A008603348006810F4003000900198401C3D
S315080001B001900098002803D10198B0F5A06FF0D1FE
S315080001C02B480068800302D50120009001E000203A
S315080001D000900098012847D12B48006850F010007D
S315080001E02949086028480068800880002649086070
S315080001F02548006850F00200234908601D48006839
S315080002001C4908601B4800681A49086019480068B4
S3150800021050F48060174908601648006830F47C106E
S31508000220144908601348006850F4E810114908603A
S315080002300F48006850F080700D4908600C48006847
S315080002408001FBD50B4800688008800009490860D2
S315080002500848006850F0020006490860054800682A
S3150800026010F00C000828F9D102B070470000000011
S3150800027000100240041002400000FFF8FFFFF6FEDF
S315080002800810024008ED00E00020024000F00BF8DC
S31508000290002801D0C046C0460020C046C04600F02F
S315080002A004F800F003F801207047FEE700F000B8F4
S315080002B00746384600F00AF8FBE77047FEE7FEE710
S315080002C0FEE7FEE7704770477047704780B5C0463F
S315080002D0C046024A11001820ABBEFBE72600020002
S315080002E0014880470148004731010008F10200082B
S315080002F0C046C046C046C046FFF7C8FFFFF7FEBF68
S31508000300FFF7FEBFFFF7FEBFFFF7FEBFFFF7FEBF13
S31508000310FFF7FEBFFFF7FEBFFFF7FEBFFFF7FEBF03
S31508000320FFF7FEBFFFF7FEBFFFF7FEBFFFF7FEBFF3
S31508000330FFF7FEBFFFF7FEBFFFF7FEBFFFF7FEBFE3
S31508000340FFF7FEBFFFF7FEBFFFF7FEBFFFF7FEBFD3
S31508000350FFF7FEBFFFF7FEBFFFF7FEBFFFF7FEBFC3
S31508000360FFF7FEBFFFF7FEBFFFF7FEBFFFF7FEBFB3
S31508000370FFF7FEBFFFF7FEBFFFF7FEBFFFF7FEBFA3
S31508000380FFF7FEBFFFF7FEBFFFF7FEBFFFF7FEBF93
S31508000390FFF7FEBFFFF7FEBFFFF7FEBFFFF7FEBF83
S315080003A0FFF7FEBFFFF7FEBFFFF7FEBFFFF7FEBF73
S315080003B0FFF7FEBFFFF7FEBFFFF7FEBFFFF7FEBF63
S315080003C0FFF7FEBFFFF7FEBFFFF7FEBFFFF7FEBF53
S315080003D0FFF7FEBFFFF7FEBFFFF7FEBFFFF7FEBF43
S311080003E0FFF7FEBFFFF7FEBFFFF7FEBFEA
S705080002F1FF
