S010000074656D706C6174652E73726563B8
S31508000000D01000204D040008DD030008DF030008B7
S31508000010E1030008E3030008E50300080000000008
S31508000020000000000000000000000000E7030008D0
S31508000030E903000800000000EB030008ED030008D0
S31508000040690400086D0400087104000875040008B6
S31508000050790400087D040008810400088504000866
S31508000060890400088D040008910400089504000816
S31508000070990400089D040008A1040008A5040008C6
S31508000080A9040008AD040008B1040008B504000876
S31508000090B9040008BD040008C1040008C504000826
S315080000A0C9040008CD040008D1040008D5040008D6
S315080000B0D9040008DD040008E1040008E504000886
S315080000C0E9040008ED040008F1040008F504000836
S315080000D0F90400088D020008FD040008010500085F
S315080000E005050008090500080D05000811050008A2
S315080000F015050008190500081D0500082105000852
S3150800010025050008290500082D0500083105000801
S3150800011035050008390500083D05000841050008B1
S3150800012045050008490500084D0500085105000861
S3150800013080B54F48006850F001004D4908604D48A9
S3150800014000684D4908404B490860494800684B49D2
S315080001500840474908604648006830F4802044490A
S3150800016008604448006830F4FE00424908605FF4BD
S315080001701F004349086000F005F85FF00060414938
S31508000180086001BD80B500F001F801BD82B000200D
S315080001900190002000903648006850F480303449B9
S315080001A008603348006810F4003000900198401C3D
S315080001B001900098002803D10198B0F5A06FF0D1FE
S315080001C02B480068800302D50120009001E000203A
S315080001D000900098012847D12B48006850F010007D
S315080001E02949086028480068800880002649086070
S315080001F02548006850F00200234908601D48006839
S315080002001C4908601B4800681A49086019480068B4
S3150800021050F48060174908601648006830F47C106E
S31508000220144908601348006850F4E810114908603A
S315080002300F48006850F080700D4908600C48006847
S315080002408001FBD50B4800688008800009490860D2
S315080002500848006850F0020006490860054800682A
S3150800026010F00C000828F9D102B070470000000011
S3150800027000100240041002400000FFF8FFFFF6FEDF
S315080002800810024008ED00E00020024080B540F268
S3150800029025511D4800F042F8002834D01A4800F0CD
S315080002A039F81A49098809042DD4184909884904CE
S315080002B00DD5C0B20A2803D000201449088022E0D0
S315080002C01248008850F40040104908801BE0C0B26C
S315080002D00D2806D10D48008850F480400B49088047
S315080002E011E00B49094A12889204920C50540748A7
S315080002F00088401C0549088004480088C82802DB95
S3150800030000200249088001BD00380140C8000020CD
S31508000310000000208088C005C00D704770B4002317
S3150800032000240025002289B240F66A16B1420A0066
S31508000330D2B25509EDB289B211F01F04012212FAA0
S3150800034004F4012D02D18289144006E0022D02D15F
S31508000350028A144001E0828A144089B20B0A9BB2D1
S31508000360012111FA03F300880340002C03D0002B67
S3150800037001D0012200E000221000C0B270BC704714
S3150800038010B5074979441831064C7C44163404E004
S315080003900A68081D511888470146A142F8D110BDC0
S315080003A02C0000003800000050F8041B61B150F81A
S315080003B0042BD30744BFA9F101039A18002342F876
S315080003C0043B091FFAD1EFE770470000DDFFFFFF86
S315080003D0CC00000000000020000000007047FEE787
S315080003E0FEE7FEE7FEE77047704770477047000074
S315080003F000F00BF8002801D0FFF7C2FF0020C04626
S31508000400C04600F005F800F00BF801207047000020
S3150800041080B52021014800F005F8FAE7000C0140F4
S3150800042000F004B889B201617047000007463846F3
S3150800043000F002F8FBE7000080B5C046C046024A55
S3150800044011001820ABBEFBE72600020001488047D2
S3150800045001480047310100085D040008C046C0464F
S31508000460C046C046FFF7C4FFFFF7FEBFFFF7FEBF53
S31508000470FFF7FEBFFFF7FEBFFFF7FEBFFFF7FEBFA2
S31508000480FFF7FEBFFFF7FEBFFFF7FEBFFFF7FEBF92
S31508000490FFF7FEBFFFF7FEBFFFF7FEBFFFF7FEBF82
S315080004A0FFF7FEBFFFF7FEBFFFF7FEBFFFF7FEBF72
S315080004B0FFF7FEBFFFF7FEBFFFF7FEBFFFF7FEBF62
S315080004C0FFF7FEBFFFF7FEBFFFF7FEBFFFF7FEBF52
S315080004D0FFF7FEBFFFF7FEBFFFF7FEBFFFF7FEBF42
S315080004E0FFF7FEBFFFF7FEBFFFF7FEBFFFF7FEBF32
S315080004F0FFF7FEBFFFF7FEBFFFF7FEBFFFF7FEBF22
S31508000500FFF7FEBFFFF7FEBFFFF7FEBFFFF7FEBF11
S31508000510FFF7FEBFFFF7FEBFFFF7FEBFFFF7FEBF01
S31508000520FFF7FEBFFFF7FEBFFFF7FEBFFFF7FEBFF1
S31508000530FFF7FEBFFFF7FEBFFFF7FEBFFFF7FEBFE1
S31508000540FFF7FEBFFFF7FEBFFFF7FEBFFFF7FEBFD1
S30908000550FFF7FEBFE6
S7050800045D91
